{
  "_format": "hh-sol-artifact-1",
  "contractName": "TokenizedBallot",
  "sourceName": "contracts/TokenizedBallot.sol",
  "abi": [
    {
      "inputs": [
        {
          "internalType": "bytes32[]",
          "name": "proposalNames",
          "type": "bytes32[]"
        },
        {
          "internalType": "address",
          "name": "_tokenContract",
          "type": "address"
        },
        {
          "internalType": "uint256",
          "name": "_referenceBlock",
          "type": "uint256"
        }
      ],
      "stateMutability": "nonpayable",
      "type": "constructor"
    },
    {
      "inputs": [
        {
          "internalType": "uint256",
          "name": "",
          "type": "uint256"
        }
      ],
      "name": "proposals",
      "outputs": [
        {
          "internalType": "bytes32",
          "name": "name",
          "type": "bytes32"
        },
        {
          "internalType": "uint256",
          "name": "voteCount",
          "type": "uint256"
        }
      ],
      "stateMutability": "view",
      "type": "function"
    },
    {
      "inputs": [],
      "name": "tokenContract",
      "outputs": [
        {
          "internalType": "contract ITokenizedVotes",
          "name": "",
          "type": "address"
        }
      ],
      "stateMutability": "view",
      "type": "function"
    },
    {
      "inputs": [
        {
          "internalType": "uint256",
          "name": "proposal",
          "type": "uint256"
        },
        {
          "internalType": "uint256",
          "name": "amount",
          "type": "uint256"
        }
      ],
      "name": "vote",
      "outputs": [],
      "stateMutability": "nonpayable",
      "type": "function"
    },
    {
      "inputs": [
        {
          "internalType": "address",
          "name": "account",
          "type": "address"
        }
      ],
      "name": "votePower",
      "outputs": [
        {
          "internalType": "uint256",
          "name": "votePower_",
          "type": "uint256"
        }
      ],
      "stateMutability": "view",
      "type": "function"
    },
    {
      "inputs": [
        {
          "internalType": "address",
          "name": "",
          "type": "address"
        }
      ],
      "name": "votePowerSpent",
      "outputs": [
        {
          "internalType": "uint256",
          "name": "",
          "type": "uint256"
        }
      ],
      "stateMutability": "view",
      "type": "function"
    },
    {
      "inputs": [],
      "name": "winnerName",
      "outputs": [
        {
          "internalType": "bytes32",
          "name": "winnerName_",
          "type": "bytes32"
        }
      ],
      "stateMutability": "view",
      "type": "function"
    },
    {
      "inputs": [],
      "name": "winningProposal",
      "outputs": [
        {
          "internalType": "uint256",
          "name": "winningProposal_",
          "type": "uint256"
        }
      ],
      "stateMutability": "view",
      "type": "function"
    }
  ],
  "bytecode": "0x60806040523480156200001157600080fd5b5060405162000e0638038062000e06833981810160405281019062000037919062000384565b60005b8351811015620000ce5760026040518060400160405280868481518110620000675762000066620003ff565b5b6020026020010151815260200160008152509080600181540180825580915050600190039060005260206000209060020201600090919091909150600082015181600001556020820151816001015550508080620000c5906200045d565b9150506200003a565b5081600160006101000a81548173ffffffffffffffffffffffffffffffffffffffff021916908373ffffffffffffffffffffffffffffffffffffffff16021790555080600081905550505050620004aa565b6000604051905090565b600080fd5b600080fd5b600080fd5b6000601f19601f8301169050919050565b7f4e487b7100000000000000000000000000000000000000000000000000000000600052604160045260246000fd5b620001848262000139565b810181811067ffffffffffffffff82111715620001a657620001a56200014a565b5b80604052505050565b6000620001bb62000120565b9050620001c9828262000179565b919050565b600067ffffffffffffffff821115620001ec57620001eb6200014a565b5b602082029050602081019050919050565b600080fd5b6000819050919050565b620002178162000202565b81146200022357600080fd5b50565b60008151905062000237816200020c565b92915050565b6000620002546200024e84620001ce565b620001af565b905080838252602082019050602084028301858111156200027a5762000279620001fd565b5b835b81811015620002a7578062000292888262000226565b8452602084019350506020810190506200027c565b5050509392505050565b600082601f830112620002c957620002c862000134565b5b8151620002db8482602086016200023d565b91505092915050565b600073ffffffffffffffffffffffffffffffffffffffff82169050919050565b60006200031182620002e4565b9050919050565b620003238162000304565b81146200032f57600080fd5b50565b600081519050620003438162000318565b92915050565b6000819050919050565b6200035e8162000349565b81146200036a57600080fd5b50565b6000815190506200037e8162000353565b92915050565b600080600060608486031215620003a0576200039f6200012a565b5b600084015167ffffffffffffffff811115620003c157620003c06200012f565b5b620003cf86828701620002b1565b9350506020620003e28682870162000332565b9250506040620003f5868287016200036d565b9150509250925092565b7f4e487b7100000000000000000000000000000000000000000000000000000000600052603260045260246000fd5b7f4e487b7100000000000000000000000000000000000000000000000000000000600052601160045260246000fd5b60006200046a8262000349565b91507fffffffffffffffffffffffffffffffffffffffffffffffffffffffffffffffff82036200049f576200049e6200042e565b5b600182019050919050565b61094c80620004ba6000396000f3fe608060405234801561001057600080fd5b506004361061007d5760003560e01c80639e90d0d91161005b5780639e90d0d9146100ef578063b384abef1461011f578063e2ba53f01461013b578063e490e699146101595761007d565b8063013cf08b1461008257806355a373d6146100b3578063609ff1bd146100d1575b600080fd5b61009c600480360381019061009791906104cc565b610189565b6040516100aa929190610521565b60405180910390f35b6100bb6101bd565b6040516100c891906105c9565b60405180910390f35b6100d96101e3565b6040516100e691906105e4565b60405180910390f35b6101096004803603810190610104919061063d565b61026b565b60405161011691906105e4565b60405180910390f35b6101396004803603810190610134919061066a565b610283565b005b61014361036a565b60405161015091906106aa565b60405180910390f35b610173600480360381019061016e919061063d565b61039e565b60405161018091906105e4565b60405180910390f35b6002818154811061019957600080fd5b90600052602060002090600202016000915090508060000154908060010154905082565b600160009054906101000a900473ffffffffffffffffffffffffffffffffffffffff1681565b6000806000905060005b60028054905081101561026657816002828154811061020f5761020e6106c5565b5b9060005260206000209060020201600101541115610253576002818154811061023b5761023a6106c5565b5b90600052602060002090600202016001015491508092505b808061025e90610723565b9150506101ed565b505090565b60036020528060005260406000206000915090505481565b600061028e3361039e565b9050818110156102d3576040517f08c379a00000000000000000000000000000000000000000000000000000000081526004016102ca90610814565b60405180910390fd5b81600360003373ffffffffffffffffffffffffffffffffffffffff1673ffffffffffffffffffffffffffffffffffffffff16815260200190815260200160002060008282546103229190610834565b92505081905550816002848154811061033e5761033d6106c5565b5b9060005260206000209060020201600101600082825461035e9190610834565b92505081905550505050565b600060026103766101e3565b81548110610387576103866106c5565b5b906000526020600020906002020160000154905090565b6000600360008373ffffffffffffffffffffffffffffffffffffffff1673ffffffffffffffffffffffffffffffffffffffff16815260200190815260200160002054600160009054906101000a900473ffffffffffffffffffffffffffffffffffffffff1673ffffffffffffffffffffffffffffffffffffffff16633a46b1a8846000546040518363ffffffff1660e01b815260040161043f929190610877565b602060405180830381865afa15801561045c573d6000803e3d6000fd5b505050506040513d601f19601f8201168201806040525081019061048091906108b5565b61048a91906108e2565b9050919050565b600080fd5b6000819050919050565b6104a981610496565b81146104b457600080fd5b50565b6000813590506104c6816104a0565b92915050565b6000602082840312156104e2576104e1610491565b5b60006104f0848285016104b7565b91505092915050565b6000819050919050565b61050c816104f9565b82525050565b61051b81610496565b82525050565b60006040820190506105366000830185610503565b6105436020830184610512565b9392505050565b600073ffffffffffffffffffffffffffffffffffffffff82169050919050565b6000819050919050565b600061058f61058a6105858461054a565b61056a565b61054a565b9050919050565b60006105a182610574565b9050919050565b60006105b382610596565b9050919050565b6105c3816105a8565b82525050565b60006020820190506105de60008301846105ba565b92915050565b60006020820190506105f96000830184610512565b92915050565b600061060a8261054a565b9050919050565b61061a816105ff565b811461062557600080fd5b50565b60008135905061063781610611565b92915050565b60006020828403121561065357610652610491565b5b600061066184828501610628565b91505092915050565b6000806040838503121561068157610680610491565b5b600061068f858286016104b7565b92505060206106a0858286016104b7565b9150509250929050565b60006020820190506106bf6000830184610503565b92915050565b7f4e487b7100000000000000000000000000000000000000000000000000000000600052603260045260246000fd5b7f4e487b7100000000000000000000000000000000000000000000000000000000600052601160045260246000fd5b600061072e82610496565b91507fffffffffffffffffffffffffffffffffffffffffffffffffffffffffffffffff82036107605761075f6106f4565b5b600182019050919050565b600082825260208201905092915050565b7f546f6b656e697a656442616c6c6f743a20747279696e6720746f20766f74652060008201527f6d6f7265207468616e2074686520766f746520706f77657220617661696c616260208201527f6c6520666f722074686973206163636f756e7400000000000000000000000000604082015250565b60006107fe60538361076b565b91506108098261077c565b606082019050919050565b6000602082019050818103600083015261082d816107f1565b9050919050565b600061083f82610496565b915061084a83610496565b9250828201905080821115610862576108616106f4565b5b92915050565b610871816105ff565b82525050565b600060408201905061088c6000830185610868565b6108996020830184610512565b9392505050565b6000815190506108af816104a0565b92915050565b6000602082840312156108cb576108ca610491565b5b60006108d9848285016108a0565b91505092915050565b60006108ed82610496565b91506108f883610496565b92508282039050818111156109105761090f6106f4565b5b9291505056fea264697066735822122075881798f2946a39b83c970aa3818fd9130f0f33f1a28e597496cd858f45becc64736f6c63430008110033",
  "linkReferences": {},
  "deployedLinkReferences": {}
}